{
  "_format": "hh-sol-artifact-1",
  "contractName": "WebaverseERC721",
  "sourceName": "contracts/main/WebaversERC721.sol",
  "abi": [
    {
      "inputs": [],
      "stateMutability": "nonpayable",
      "type": "constructor"
    },
    {
      "anonymous": false,
      "inputs": [
        {
          "indexed": true,
          "internalType": "address",
          "name": "owner",
          "type": "address"
        },
        {
          "indexed": true,
          "internalType": "address",
          "name": "approved",
          "type": "address"
        },
        {
          "indexed": true,
          "internalType": "uint256",
          "name": "tokenId",
          "type": "uint256"
        }
      ],
      "name": "Approval",
      "type": "event"
    },
    {
      "anonymous": false,
      "inputs": [
        {
          "indexed": true,
          "internalType": "address",
          "name": "owner",
          "type": "address"
        },
        {
          "indexed": true,
          "internalType": "address",
          "name": "operator",
          "type": "address"
        },
        {
          "indexed": false,
          "internalType": "bool",
          "name": "approved",
          "type": "bool"
        }
      ],
      "name": "ApprovalForAll",
      "type": "event"
    },
    {
      "anonymous": false,
      "inputs": [
        {
          "indexed": false,
          "internalType": "address",
          "name": "signer",
          "type": "address"
        },
        {
          "indexed": false,
          "internalType": "address",
          "name": "claimer",
          "type": "address"
        },
        {
          "indexed": true,
          "internalType": "uint256",
          "name": "id",
          "type": "uint256"
        }
      ],
      "name": "Claim",
      "type": "event"
    },
    {
      "anonymous": false,
      "inputs": [
        {
          "indexed": true,
          "internalType": "address",
          "name": "externalContract",
          "type": "address"
        },
        {
          "indexed": false,
          "internalType": "address",
          "name": "signer",
          "type": "address"
        },
        {
          "indexed": false,
          "internalType": "address",
          "name": "claimer",
          "type": "address"
        },
        {
          "indexed": true,
          "internalType": "uint256",
          "name": "id",
          "type": "uint256"
        }
      ],
      "name": "ExternalClaim",
      "type": "event"
    },
    {
      "anonymous": false,
      "inputs": [
        {
          "indexed": true,
          "internalType": "address",
          "name": "previousOwner",
          "type": "address"
        },
        {
          "indexed": true,
          "internalType": "address",
          "name": "newOwner",
          "type": "address"
        }
      ],
      "name": "OwnershipTransferred",
      "type": "event"
    },
    {
      "anonymous": false,
      "inputs": [
        {
          "indexed": true,
          "internalType": "address",
          "name": "from",
          "type": "address"
        },
        {
          "indexed": true,
          "internalType": "address",
          "name": "to",
          "type": "address"
        },
        {
          "indexed": true,
          "internalType": "uint256",
          "name": "tokenId",
          "type": "uint256"
        }
      ],
      "name": "Transfer",
      "type": "event"
    },
    {
      "anonymous": false,
      "inputs": [
        {
          "indexed": false,
          "internalType": "uint256",
          "name": "id",
          "type": "uint256"
        },
        {
          "indexed": false,
          "internalType": "string",
          "name": "uri",
          "type": "string"
        }
      ],
      "name": "URI",
      "type": "event"
    },
    {
      "inputs": [
        {
          "internalType": "address",
          "name": "to",
          "type": "address"
        },
        {
          "internalType": "uint256",
          "name": "tokenId",
          "type": "uint256"
        }
      ],
      "name": "approve",
      "outputs": [],
      "stateMutability": "nonpayable",
      "type": "function"
    },
    {
      "inputs": [
        {
          "internalType": "address",
          "name": "owner",
          "type": "address"
        }
      ],
      "name": "balanceOf",
      "outputs": [
        {
          "internalType": "uint256",
          "name": "",
          "type": "uint256"
        }
      ],
      "stateMutability": "view",
      "type": "function"
    },
    {
      "inputs": [],
      "name": "baseURI",
      "outputs": [
        {
          "internalType": "string",
          "name": "",
          "type": "string"
        }
      ],
      "stateMutability": "view",
      "type": "function"
    },
    {
      "inputs": [
        {
          "internalType": "uint256",
          "name": "",
          "type": "uint256"
        }
      ],
      "name": "burnedNonces",
      "outputs": [
        {
          "internalType": "bool",
          "name": "",
          "type": "bool"
        }
      ],
      "stateMutability": "view",
      "type": "function"
    },
    {
      "inputs": [
        {
          "internalType": "address",
          "name": "claimer",
          "type": "address"
        },
        {
          "components": [
            {
              "internalType": "uint256",
              "name": "tokenId",
              "type": "uint256"
            },
            {
              "internalType": "uint256",
              "name": "balance",
              "type": "uint256"
            },
            {
              "internalType": "uint256",
              "name": "nonce",
              "type": "uint256"
            },
            {
              "internalType": "uint256",
              "name": "expiry",
              "type": "uint256"
            },
            {
              "internalType": "bytes",
              "name": "signature",
              "type": "bytes"
            }
          ],
          "internalType": "struct WBVRSVoucher.NFTVoucher",
          "name": "voucher",
          "type": "tuple"
        }
      ],
      "name": "claim",
      "outputs": [
        {
          "internalType": "uint256",
          "name": "",
          "type": "uint256"
        }
      ],
      "stateMutability": "nonpayable",
      "type": "function"
    },
    {
      "inputs": [],
      "name": "currentTokenId",
      "outputs": [
        {
          "internalType": "uint256",
          "name": "",
          "type": "uint256"
        }
      ],
      "stateMutability": "view",
      "type": "function"
    },
    {
      "inputs": [
        {
          "internalType": "address",
          "name": "claimer",
          "type": "address"
        },
        {
          "internalType": "address",
          "name": "externalContractAddress",
          "type": "address"
        },
        {
          "components": [
            {
              "internalType": "uint256",
              "name": "tokenId",
              "type": "uint256"
            },
            {
              "internalType": "uint256",
              "name": "balance",
              "type": "uint256"
            },
            {
              "internalType": "uint256",
              "name": "nonce",
              "type": "uint256"
            },
            {
              "internalType": "uint256",
              "name": "expiry",
              "type": "uint256"
            },
            {
              "internalType": "bytes",
              "name": "signature",
              "type": "bytes"
            }
          ],
          "internalType": "struct WBVRSVoucher.NFTVoucher",
          "name": "voucher",
          "type": "tuple"
        }
      ],
      "name": "externalClaim",
      "outputs": [
        {
          "internalType": "uint256",
          "name": "",
          "type": "uint256"
        }
      ],
      "stateMutability": "nonpayable",
      "type": "function"
    },
    {
      "inputs": [
        {
          "internalType": "uint256",
          "name": "tokenId",
          "type": "uint256"
        }
      ],
      "name": "getApproved",
      "outputs": [
        {
          "internalType": "address",
          "name": "",
          "type": "address"
        }
      ],
      "stateMutability": "view",
      "type": "function"
    },
    {
      "inputs": [],
      "name": "getChainID",
      "outputs": [
        {
          "internalType": "uint256",
          "name": "",
          "type": "uint256"
        }
      ],
      "stateMutability": "view",
      "type": "function"
    },
    {
      "inputs": [],
      "name": "getNextTokenId",
      "outputs": [
        {
          "internalType": "uint256",
          "name": "",
          "type": "uint256"
        }
      ],
      "stateMutability": "view",
      "type": "function"
    },
    {
      "inputs": [
        {
          "internalType": "address",
          "name": "owner",
          "type": "address"
        },
        {
          "internalType": "address",
          "name": "operator",
          "type": "address"
        }
      ],
      "name": "isApprovedForAll",
      "outputs": [
        {
          "internalType": "bool",
          "name": "",
          "type": "bool"
        }
      ],
      "stateMutability": "view",
      "type": "function"
    },
    {
      "inputs": [
        {
          "internalType": "address",
          "name": "account",
          "type": "address"
        },
        {
          "internalType": "string",
          "name": "uri",
          "type": "string"
        }
      ],
      "name": "mint",
      "outputs": [
        {
          "internalType": "uint256",
          "name": "",
          "type": "uint256"
        }
      ],
      "stateMutability": "nonpayable",
      "type": "function"
    },
    {
      "inputs": [
        {
          "internalType": "address",
          "name": "account",
          "type": "address"
        },
        {
          "internalType": "uint256",
          "name": "tokenCount",
          "type": "uint256"
        },
        {
          "internalType": "string",
          "name": "cid",
          "type": "string"
        }
      ],
      "name": "mintBatch",
      "outputs": [],
      "stateMutability": "nonpayable",
      "type": "function"
    },
    {
      "inputs": [],
      "name": "name",
      "outputs": [
        {
          "internalType": "string",
          "name": "",
          "type": "string"
        }
      ],
      "stateMutability": "view",
      "type": "function"
    },
    {
      "inputs": [],
      "name": "owner",
      "outputs": [
        {
          "internalType": "address",
          "name": "",
          "type": "address"
        }
      ],
      "stateMutability": "view",
      "type": "function"
    },
    {
      "inputs": [
        {
          "internalType": "uint256",
          "name": "tokenId",
          "type": "uint256"
        }
      ],
      "name": "ownerOf",
      "outputs": [
        {
          "internalType": "address",
          "name": "",
          "type": "address"
        }
      ],
      "stateMutability": "view",
      "type": "function"
    },
    {
      "inputs": [],
      "name": "renounceOwnership",
      "outputs": [],
      "stateMutability": "nonpayable",
      "type": "function"
    },
    {
      "inputs": [
        {
          "internalType": "address",
          "name": "from",
          "type": "address"
        },
        {
          "internalType": "address",
          "name": "to",
          "type": "address"
        },
        {
          "internalType": "uint256",
          "name": "tokenId",
          "type": "uint256"
        }
      ],
      "name": "safeTransferFrom",
      "outputs": [],
      "stateMutability": "nonpayable",
      "type": "function"
    },
    {
      "inputs": [
        {
          "internalType": "address",
          "name": "from",
          "type": "address"
        },
        {
          "internalType": "address",
          "name": "to",
          "type": "address"
        },
        {
          "internalType": "uint256",
          "name": "tokenId",
          "type": "uint256"
        },
        {
          "internalType": "bytes",
          "name": "_data",
          "type": "bytes"
        }
      ],
      "name": "safeTransferFrom",
      "outputs": [],
      "stateMutability": "nonpayable",
      "type": "function"
    },
    {
      "inputs": [
        {
          "internalType": "address",
          "name": "operator",
          "type": "address"
        },
        {
          "internalType": "bool",
          "name": "approved",
          "type": "bool"
        }
      ],
      "name": "setApprovalForAll",
      "outputs": [],
      "stateMutability": "nonpayable",
      "type": "function"
    },
    {
      "inputs": [
        {
          "internalType": "string",
          "name": "_uri",
          "type": "string"
        }
      ],
      "name": "setBaseURI",
      "outputs": [],
      "stateMutability": "nonpayable",
      "type": "function"
    },
    {
      "inputs": [
        {
          "internalType": "uint256[]",
          "name": "ids",
          "type": "uint256[]"
        },
        {
          "internalType": "string[]",
          "name": "uris",
          "type": "string[]"
        }
      ],
      "name": "setBatchURI",
      "outputs": [],
      "stateMutability": "nonpayable",
      "type": "function"
    },
    {
      "inputs": [
        {
          "internalType": "uint256",
          "name": "tokenId",
          "type": "uint256"
        },
        {
          "internalType": "string",
          "name": "uri",
          "type": "string"
        }
      ],
      "name": "setTokenURI",
      "outputs": [],
      "stateMutability": "nonpayable",
      "type": "function"
    },
    {
      "inputs": [
        {
          "internalType": "bytes4",
          "name": "interfaceId",
          "type": "bytes4"
        }
      ],
      "name": "supportsInterface",
      "outputs": [
        {
          "internalType": "bool",
          "name": "",
          "type": "bool"
        }
      ],
      "stateMutability": "view",
      "type": "function"
    },
    {
      "inputs": [],
      "name": "symbol",
      "outputs": [
        {
          "internalType": "string",
          "name": "",
          "type": "string"
        }
      ],
      "stateMutability": "view",
      "type": "function"
    },
    {
      "inputs": [
        {
          "internalType": "uint256",
          "name": "index",
          "type": "uint256"
        }
      ],
      "name": "tokenByIndex",
      "outputs": [
        {
          "internalType": "uint256",
          "name": "",
          "type": "uint256"
        }
      ],
      "stateMutability": "view",
      "type": "function"
    },
    {
      "inputs": [
        {
          "internalType": "address",
          "name": "owner",
          "type": "address"
        },
        {
          "internalType": "uint256",
          "name": "index",
          "type": "uint256"
        }
      ],
      "name": "tokenOfOwnerByIndex",
      "outputs": [
        {
          "internalType": "uint256",
          "name": "",
          "type": "uint256"
        }
      ],
      "stateMutability": "view",
      "type": "function"
    },
    {
      "inputs": [
        {
          "internalType": "uint256",
          "name": "tokenId",
          "type": "uint256"
        }
      ],
      "name": "tokenURI",
      "outputs": [
        {
          "internalType": "string",
          "name": "",
          "type": "string"
        }
      ],
      "stateMutability": "view",
      "type": "function"
    },
    {
      "inputs": [],
      "name": "totalSupply",
      "outputs": [
        {
          "internalType": "uint256",
          "name": "",
          "type": "uint256"
        }
      ],
      "stateMutability": "view",
      "type": "function"
    },
    {
      "inputs": [
        {
          "internalType": "address",
          "name": "from",
          "type": "address"
        },
        {
          "internalType": "address",
          "name": "to",
          "type": "address"
        },
        {
          "internalType": "uint256",
          "name": "tokenId",
          "type": "uint256"
        }
      ],
      "name": "transferFrom",
      "outputs": [],
      "stateMutability": "nonpayable",
      "type": "function"
    },
    {
      "inputs": [
        {
          "internalType": "address",
          "name": "newOwner",
          "type": "address"
        }
      ],
      "name": "transferOwnership",
      "outputs": [],
      "stateMutability": "nonpayable",
      "type": "function"
    },
    {
      "inputs": [
        {
          "components": [
            {
              "internalType": "uint256",
              "name": "tokenId",
              "type": "uint256"
            },
            {
              "internalType": "uint256",
              "name": "balance",
              "type": "uint256"
            },
            {
              "internalType": "uint256",
              "name": "nonce",
              "type": "uint256"
            },
            {
              "internalType": "uint256",
              "name": "expiry",
              "type": "uint256"
            },
            {
              "internalType": "bytes",
              "name": "signature",
              "type": "bytes"
            }
          ],
          "internalType": "struct WBVRSVoucher.NFTVoucher",
          "name": "voucher",
          "type": "tuple"
        }
      ],
      "name": "verifyVoucher",
      "outputs": [
        {
          "internalType": "address",
          "name": "",
          "type": "address"
        }
      ],
      "stateMutability": "nonpayable",
      "type": "function"
    }
  ],
  "bytecode": "0x6101206040523480156200001257600080fd5b506040518060400160405280600c81526020017f5765626176657273654e465400000000000000000000000000000000000000008152506040518060400160405280600581526020017f57425652530000000000000000000000000000000000000000000000000000008152506040518060400160405280601181526020017f5765626176657273652d766f75636865720000000000000000000000000000008152506040518060400160405280600181526020017f310000000000000000000000000000000000000000000000000000000000000081525060008280519060200120905060008280519060200120905060007f8b73c3c69bb8fe3d512ecc4cf759cc79239f7b179b0ffacaa9a75d522b39400f90508260c081815250508160e081815250504660a0818152505062000153818484620001f460201b60201c565b608081815250508061010081815250505050505050816001908051906020019062000180929190620002fe565b50806002908051906020019062000199929190620002fe565b505050620001bc620001b06200023060201b60201c565b6200023860201b60201c565b60405180606001604052806022815260200162005d2e60229139600c9080519060200190620001ed929190620002fe565b50620004eb565b6000838383463060405160200162000211959493929190620003e1565b6040516020818303038152906040528051906020012090509392505050565b600033905090565b6000600b60009054906101000a900473ffffffffffffffffffffffffffffffffffffffff16905081600b60006101000a81548173ffffffffffffffffffffffffffffffffffffffff021916908373ffffffffffffffffffffffffffffffffffffffff1602179055508173ffffffffffffffffffffffffffffffffffffffff168173ffffffffffffffffffffffffffffffffffffffff167f8be0079c531659141344cd1fd0a4f28419497f9722a3daafe3b4186f6b6457e060405160405180910390a35050565b8280546200030c9062000486565b90600052602060002090601f0160209004810192826200033057600085556200037c565b82601f106200034b57805160ff19168380011785556200037c565b828001600101855582156200037c579182015b828111156200037b5782518255916020019190600101906200035e565b5b5090506200038b91906200038f565b5090565b5b80821115620003aa57600081600090555060010162000390565b5090565b620003b9816200043e565b82525050565b620003ca8162000452565b82525050565b620003db816200047c565b82525050565b600060a082019050620003f86000830188620003bf565b620004076020830187620003bf565b620004166040830186620003bf565b620004256060830185620003d0565b620004346080830184620003ae565b9695505050505050565b60006200044b826200045c565b9050919050565b6000819050919050565b600073ffffffffffffffffffffffffffffffffffffffff82169050919050565b6000819050919050565b600060028204905060018216806200049f57607f821691505b60208210811415620004b657620004b5620004bc565b5b50919050565b7f4e487b7100000000000000000000000000000000000000000000000000000000600052602260045260246000fd5b60805160a05160c05160e051610100516157fe6200053060003960006131c001526000613202015260006131e10152600061316d0152600061319501526157fe6000f3fe608060405234801561001057600080fd5b50600436106101ef5760003560e01c80636c0360eb1161010f578063a8689ce2116100a2578063caa0f92a11610071578063caa0f92a146105dc578063d0def521146105fa578063e985e9c51461062a578063f2fde38b1461065a576101ef565b8063a8689ce214610530578063ad637e6714610560578063b88d4fde14610590578063c87b56dd146105ac576101ef565b80638da5cb5b116100de5780638da5cb5b146104a85780639468f2ca146104c657806395d89b41146104f6578063a22cb46514610514576101ef565b80636c0360eb1461042057806370a082311461043e578063715018a61461046e5780637e2499cc14610478576101ef565b806323b872dd116101875780634f6ccce7116101565780634f6ccce71461038657806355f804b3146103b6578063564b81ef146103d25780636352211e146103f0576101ef565b806323b872dd146103025780632f745c591461031e57806331e4737b1461034e57806342842e0e1461036a576101ef565b8063095ea7b3116101c3578063095ea7b314610290578063162094c4146102ac57806318160ddd146102c85780631bf66f37146102e6576101ef565b80629a9b7b146101f457806301ffc9a71461021257806306fdde0314610242578063081812fc14610260575b600080fd5b6101fc610676565b6040516102099190614950565b60405180910390f35b61022c60048036038101906102279190613b6c565b61067c565b6040516102399190614468565b60405180910390f35b61024a61068e565b604051610257919061456e565b60405180910390f35b61027a60048036038101906102759190613c58565b610720565b60405161028791906143a1565b60405180910390f35b6102aa60048036038101906102a59190613a45565b6107a5565b005b6102c660048036038101906102c19190613c85565b6108bd565b005b6102d0610a91565b6040516102dd9190614950565b60405180910390f35b61030060048036038101906102fb9190613af4565b610a9e565b005b61031c60048036038101906103179190613877565b610b6d565b005b61033860048036038101906103339190613a45565b610bcd565b6040516103459190614950565b60405180910390f35b61036860048036038101906103639190613a85565b610c72565b005b610384600480360381019061037f9190613877565b610e64565b005b6103a0600480360381019061039b9190613c58565b610e84565b6040516103ad9190614950565b60405180910390f35b6103d060048036038101906103cb9190613bc6565b610ef5565b005b6103da610f8b565b6040516103e79190614950565b60405180910390f35b61040a60048036038101906104059190613c58565b610f98565b60405161041791906143a1565b60405180910390f35b61042861104a565b604051610435919061456e565b60405180910390f35b6104586004803603810190610453919061376e565b6110d8565b6040516104659190614950565b60405180910390f35b610476611190565b005b610492600480360381019061048d9190613c58565b611218565b60405161049f9190614468565b60405180910390f35b6104b0611238565b6040516104bd91906143a1565b60405180910390f35b6104e060048036038101906104db91906139e9565b611262565b6040516104ed9190614950565b60405180910390f35b6104fe611353565b60405161050b919061456e565b60405180910390f35b61052e6004803603810190610529919061394d565b6113e5565b005b61054a60048036038101906105459190613808565b611566565b6040516105579190614950565b60405180910390f35b61057a60048036038101906105759190613c0f565b611845565b60405161058791906143a1565b60405180910390f35b6105aa60048036038101906105a591906138ca565b61193d565b005b6105c660048036038101906105c19190613c58565b61199f565b6040516105d3919061456e565b60405180910390f35b6105e4611b74565b6040516105f19190614950565b60405180910390f35b610614600480360381019061060f919061398d565b611b8a565b6040516106219190614950565b60405180910390f35b610644600480360381019061063f91906137c8565b611bbd565b6040516106519190614468565b60405180910390f35b610674600480360381019061066f919061376e565b611c51565b005b600e5481565b600061068782611d49565b9050919050565b60606001805461069d90614cbd565b80601f01602080910402602001604051908101604052809291908181526020018280546106c990614cbd565b80156107165780601f106106eb57610100808354040283529160200191610716565b820191906000526020600020905b8154815290600101906020018083116106f957829003601f168201915b5050505050905090565b600061072b82611e2b565b61076a576040517f08c379a0000000000000000000000000000000000000000000000000000000008152600401610761906147f0565b60405180910390fd5b6005600083815260200190815260200160002060009054906101000a900473ffffffffffffffffffffffffffffffffffffffff169050919050565b60006107b082610f98565b90508073ffffffffffffffffffffffffffffffffffffffff168373ffffffffffffffffffffffffffffffffffffffff161415610821576040517f08c379a0000000000000000000000000000000000000000000000000000000008152600401610818906148b0565b60405180910390fd5b8073ffffffffffffffffffffffffffffffffffffffff16610840611e97565b73ffffffffffffffffffffffffffffffffffffffff16148061086f575061086e81610869611e97565b611bbd565b5b6108ae576040517f08c379a00000000000000000000000000000000000000000000000000000000081526004016108a590614710565b60405180910390fd5b6108b88383611e9f565b505050565b6108c5611238565b73ffffffffffffffffffffffffffffffffffffffff166108e3611e97565b73ffffffffffffffffffffffffffffffffffffffff16148061093f575061090982610f98565b73ffffffffffffffffffffffffffffffffffffffff16610927611e97565b73ffffffffffffffffffffffffffffffffffffffff16145b61097e576040517f08c379a0000000000000000000000000000000000000000000000000000000008152600401610975906147d0565b60405180910390fd5b61098782611e2b565b6109c6576040517f08c379a00000000000000000000000000000000000000000000000000000000081526004016109bd90614770565b60405180910390fd5b6002815111610a0a576040517f08c379a0000000000000000000000000000000000000000000000000000000008152600401610a0190614890565b60405180910390fd5b80600d60008481526020019081526020016000209080519060200190610a319291906133f4565b507f369737eac2f50072db0001f8a5c3f225ab50d5ab38d8cbdbabf885abf2ab722a82600c83604051602001610a68929190614346565b604051602081830303815290604052604051610a8592919061496b565b60405180910390a15050565b6000600980549050905090565b60005b8251811015610b6857610ae8838281518110610ac057610abf614e8f565b5b6020026020010151838381518110610adb57610ada614e8f565b5b60200260200101516108bd565b7f369737eac2f50072db0001f8a5c3f225ab50d5ab38d8cbdbabf885abf2ab722a838281518110610b1c57610b1b614e8f565b5b6020026020010151838381518110610b3757610b36614e8f565b5b6020026020010151604051610b4d92919061496b565b60405180910390a18080610b6090614d20565b915050610aa1565b505050565b610b7e610b78611e97565b82611f58565b610bbd576040517f08c379a0000000000000000000000000000000000000000000000000000000008152600401610bb4906148f0565b60405180910390fd5b610bc8838383612036565b505050565b6000610bd8836110d8565b8210610c19576040517f08c379a0000000000000000000000000000000000000000000000000000000008152600401610c10906145d0565b60405180910390fd5b600760008473ffffffffffffffffffffffffffffffffffffffff1673ffffffffffffffffffffffffffffffffffffffff168152602001908152602001600020600083815260200190815260200160002054905092915050565b610c7a611e97565b73ffffffffffffffffffffffffffffffffffffffff16610c98611238565b73ffffffffffffffffffffffffffffffffffffffff1614610cee576040517f08c379a0000000000000000000000000000000000000000000000000000000008152600401610ce590614810565b60405180910390fd5b60008267ffffffffffffffff811115610d0a57610d09614ebe565b5b604051908082528060200260200182016040528015610d385781602001602082028036833780820191505090505b50905060008367ffffffffffffffff811115610d5757610d56614ebe565b5b604051908082528060200260200182016040528015610d8a57816020015b6060815260200190600190039081610d755790505b50905060005b84811015610e5257610da0611b74565b838281518110610db357610db2614e8f565b5b60200260200101818152505083610dd5600183610dd09190614b35565b612292565b604051602001610de692919061430c565b604051602081830303815290604052828281518110610e0857610e07614e8f565b5b6020026020010181905250610e3786848381518110610e2a57610e29614e8f565b5b60200260200101516123f3565b610e3f6125c1565b8080610e4a90614d20565b915050610d90565b50610e5d8282610a9e565b5050505050565b610e7f8383836040518060200160405280600081525061193d565b505050565b6000610e8e610a91565b8210610ecf576040517f08c379a0000000000000000000000000000000000000000000000000000000008152600401610ec690614910565b60405180910390fd5b60098281548110610ee357610ee2614e8f565b5b90600052602060002001549050919050565b610efd611e97565b73ffffffffffffffffffffffffffffffffffffffff16610f1b611238565b73ffffffffffffffffffffffffffffffffffffffff1614610f71576040517f08c379a0000000000000000000000000000000000000000000000000000000008152600401610f6890614810565b60405180910390fd5b80600c9080519060200190610f879291906133f4565b5050565b6000804690508091505090565b6000806003600084815260200190815260200160002060009054906101000a900473ffffffffffffffffffffffffffffffffffffffff169050600073ffffffffffffffffffffffffffffffffffffffff168173ffffffffffffffffffffffffffffffffffffffff161415611041576040517f08c379a000000000000000000000000000000000000000000000000000000000815260040161103890614750565b60405180910390fd5b80915050919050565b600c805461105790614cbd565b80601f016020809104026020016040519081016040528092919081815260200182805461108390614cbd565b80156110d05780601f106110a5576101008083540402835291602001916110d0565b820191906000526020600020905b8154815290600101906020018083116110b357829003601f168201915b505050505081565b60008073ffffffffffffffffffffffffffffffffffffffff168273ffffffffffffffffffffffffffffffffffffffff161415611149576040517f08c379a000000000000000000000000000000000000000000000000000000000815260040161114090614730565b60405180910390fd5b600460008373ffffffffffffffffffffffffffffffffffffffff1673ffffffffffffffffffffffffffffffffffffffff168152602001908152602001600020549050919050565b611198611e97565b73ffffffffffffffffffffffffffffffffffffffff166111b6611238565b73ffffffffffffffffffffffffffffffffffffffff161461120c576040517f08c379a000000000000000000000000000000000000000000000000000000000815260040161120390614810565b60405180910390fd5b61121660006125db565b565b60006020528060005260406000206000915054906101000a900460ff1681565b6000600b60009054906101000a900473ffffffffffffffffffffffffffffffffffffffff16905090565b60008061126e83611845565b905061127d8360000135610f98565b73ffffffffffffffffffffffffffffffffffffffff168173ffffffffffffffffffffffffffffffffffffffff16146112ea576040517f08c379a00000000000000000000000000000000000000000000000000000000081526004016112e1906148d0565b60405180910390fd5b6112f8308460000135611e9f565b61130781858560000135612036565b82600001357f70eb43c4a8ae8c40502dcf22436c509c28d6ff421cf07c491be56984bd987068828660405161133d9291906143bc565b60405180910390a2826000013591505092915050565b60606002805461136290614cbd565b80601f016020809104026020016040519081016040528092919081815260200182805461138e90614cbd565b80156113db5780601f106113b0576101008083540402835291602001916113db565b820191906000526020600020905b8154815290600101906020018083116113be57829003601f168201915b5050505050905090565b6113ed611e97565b73ffffffffffffffffffffffffffffffffffffffff168273ffffffffffffffffffffffffffffffffffffffff16141561145b576040517f08c379a000000000000000000000000000000000000000000000000000000000815260040161145290614690565b60405180910390fd5b8060066000611468611e97565b73ffffffffffffffffffffffffffffffffffffffff1673ffffffffffffffffffffffffffffffffffffffff16815260200190815260200160002060008473ffffffffffffffffffffffffffffffffffffffff1673ffffffffffffffffffffffffffffffffffffffff16815260200190815260200160002060006101000a81548160ff0219169083151502179055508173ffffffffffffffffffffffffffffffffffffffff16611515611e97565b73ffffffffffffffffffffffffffffffffffffffff167f17307eab39ab6107e8899845ad3d59bd9653f200f220920489ca2b5937696c318360405161155a9190614468565b60405180910390a35050565b600080839050600061157784611845565b90508173ffffffffffffffffffffffffffffffffffffffff16636352211e85600001356040518263ffffffff1660e01b81526004016115b69190614950565b60206040518083038186803b1580156115ce57600080fd5b505afa1580156115e2573d6000803e3d6000fd5b505050506040513d601f19601f82011682018060405250810190611606919061379b565b73ffffffffffffffffffffffffffffffffffffffff168173ffffffffffffffffffffffffffffffffffffffff1614611673576040517f08c379a000000000000000000000000000000000000000000000000000000000815260040161166a906148d0565b60405180910390fd5b3073ffffffffffffffffffffffffffffffffffffffff168273ffffffffffffffffffffffffffffffffffffffff1663081812fc86600001356040518263ffffffff1660e01b81526004016116c79190614950565b60206040518083038186803b1580156116df57600080fd5b505afa1580156116f3573d6000803e3d6000fd5b505050506040513d601f19601f82011682018060405250810190611717919061379b565b73ffffffffffffffffffffffffffffffffffffffff161461176d576040517f08c379a000000000000000000000000000000000000000000000000000000000815260040161176490614870565b60405180910390fd5b8173ffffffffffffffffffffffffffffffffffffffff166323b872dd828887600001356040518463ffffffff1660e01b81526004016117ae939291906143e5565b600060405180830381600087803b1580156117c857600080fd5b505af11580156117dc573d6000803e3d6000fd5b5050505083600001358573ffffffffffffffffffffffffffffffffffffffff167f111ebfff7ae758e422941bfa7b90fc5ddafbb23589ebcdf6da904a05c3422ace838960405161182d9291906143bc565b60405180910390a38360000135925050509392505050565b6000816060013542111561188e576040517f08c379a000000000000000000000000000000000000000000000000000000000815260040161188590614610565b60405180910390fd5b600015156000808460400135815260200190815260200160002060009054906101000a900460ff161515146118f8576040517f08c379a00000000000000000000000000000000000000000000000000000000081526004016118ef906146f0565b60405180910390fd5b60016000808460400135815260200190815260200160002060006101000a81548160ff0219169083151502179055506000611932836126a1565b905080915050919050565b61194e611948611e97565b83611f58565b61198d576040517f08c379a0000000000000000000000000000000000000000000000000000000008152600401611984906148f0565b60405180910390fd5b61199984848484612713565b50505050565b60606119aa82611e2b565b6119e9576040517f08c379a00000000000000000000000000000000000000000000000000000000081526004016119e090614930565b60405180910390fd5b6000600d60008481526020019081526020016000208054611a0990614cbd565b80601f0160208091040260200160405190810160405280929190818152602001828054611a3590614cbd565b8015611a825780601f10611a5757610100808354040283529160200191611a82565b820191906000526020600020905b815481529060010190602001808311611a6557829003601f168201915b505050505090506000600c8054611a9890614cbd565b80601f0160208091040260200160405190810160405280929190818152602001828054611ac490614cbd565b8015611b115780601f10611ae657610100808354040283529160200191611b11565b820191906000526020600020905b815481529060010190602001808311611af457829003601f168201915b50505050509050600081511415611b2c578192505050611b6f565b600082511115611b61578082604051602001611b499291906142e8565b60405160208183030381529060405292505050611b6f565b611b6a8461276f565b925050505b919050565b60006001600e54611b859190614b35565b905090565b600080611b95611b74565b9050611ba184826123f3565b611bab81846108bd565b611bb36125c1565b8091505092915050565b6000600660008473ffffffffffffffffffffffffffffffffffffffff1673ffffffffffffffffffffffffffffffffffffffff16815260200190815260200160002060008373ffffffffffffffffffffffffffffffffffffffff1673ffffffffffffffffffffffffffffffffffffffff16815260200190815260200160002060009054906101000a900460ff16905092915050565b611c59611e97565b73ffffffffffffffffffffffffffffffffffffffff16611c77611238565b73ffffffffffffffffffffffffffffffffffffffff1614611ccd576040517f08c379a0000000000000000000000000000000000000000000000000000000008152600401611cc490614810565b60405180910390fd5b600073ffffffffffffffffffffffffffffffffffffffff168173ffffffffffffffffffffffffffffffffffffffff161415611d3d576040517f08c379a0000000000000000000000000000000000000000000000000000000008152600401611d3490614630565b60405180910390fd5b611d46816125db565b50565b60007f80ac58cd000000000000000000000000000000000000000000000000000000007bffffffffffffffffffffffffffffffffffffffffffffffffffffffff1916827bffffffffffffffffffffffffffffffffffffffffffffffffffffffff19161480611e1457507f5b5e139f000000000000000000000000000000000000000000000000000000007bffffffffffffffffffffffffffffffffffffffffffffffffffffffff1916827bffffffffffffffffffffffffffffffffffffffffffffffffffffffff1916145b80611e245750611e2382612816565b5b9050919050565b60008073ffffffffffffffffffffffffffffffffffffffff166003600084815260200190815260200160002060009054906101000a900473ffffffffffffffffffffffffffffffffffffffff1673ffffffffffffffffffffffffffffffffffffffff1614159050919050565b600033905090565b816005600083815260200190815260200160002060006101000a81548173ffffffffffffffffffffffffffffffffffffffff021916908373ffffffffffffffffffffffffffffffffffffffff160217905550808273ffffffffffffffffffffffffffffffffffffffff16611f1283610f98565b73ffffffffffffffffffffffffffffffffffffffff167f8c5be1e5ebec7d5bd14f71427d1e84f3dd0314c0f7b2291e5b200ac8c7c3b92560405160405180910390a45050565b6000611f6382611e2b565b611fa2576040517f08c379a0000000000000000000000000000000000000000000000000000000008152600401611f99906146d0565b60405180910390fd5b6000611fad83610f98565b90508073ffffffffffffffffffffffffffffffffffffffff168473ffffffffffffffffffffffffffffffffffffffff16148061201c57508373ffffffffffffffffffffffffffffffffffffffff1661200484610720565b73ffffffffffffffffffffffffffffffffffffffff16145b8061202d575061202c8185611bbd565b5b91505092915050565b8273ffffffffffffffffffffffffffffffffffffffff1661205682610f98565b73ffffffffffffffffffffffffffffffffffffffff16146120ac576040517f08c379a00000000000000000000000000000000000000000000000000000000081526004016120a390614830565b60405180910390fd5b600073ffffffffffffffffffffffffffffffffffffffff168273ffffffffffffffffffffffffffffffffffffffff16141561211c576040517f08c379a000000000000000000000000000000000000000000000000000000000815260040161211390614670565b60405180910390fd5b612127838383612880565b612132600082611e9f565b6001600460008573ffffffffffffffffffffffffffffffffffffffff1673ffffffffffffffffffffffffffffffffffffffff16815260200190815260200160002060008282546121829190614bbc565b925050819055506001600460008473ffffffffffffffffffffffffffffffffffffffff1673ffffffffffffffffffffffffffffffffffffffff16815260200190815260200160002060008282546121d99190614b35565b92505081905550816003600083815260200190815260200160002060006101000a81548173ffffffffffffffffffffffffffffffffffffffff021916908373ffffffffffffffffffffffffffffffffffffffff160217905550808273ffffffffffffffffffffffffffffffffffffffff168473ffffffffffffffffffffffffffffffffffffffff167fddf252ad1be2c89b69c2b068fc378daa952ba7f163c4a11628f55a4df523b3ef60405160405180910390a4505050565b606060008214156122da576040518060400160405280600181526020017f300000000000000000000000000000000000000000000000000000000000000081525090506123ee565b600082905060005b6000821461230c5780806122f590614d20565b915050600a826123059190614b8b565b91506122e2565b60008167ffffffffffffffff81111561232857612327614ebe565b5b6040519080825280601f01601f19166020018201604052801561235a5781602001600182028036833780820191505090505b5090505b600085146123e7576001826123739190614bbc565b9150600a856123829190614d73565b603061238e9190614b35565b60f81b8183815181106123a4576123a3614e8f565b5b60200101907effffffffffffffffffffffffffffffffffffffffffffffffffffffffffffff1916908160001a905350600a856123e09190614b8b565b945061235e565b8093505050505b919050565b600073ffffffffffffffffffffffffffffffffffffffff168273ffffffffffffffffffffffffffffffffffffffff161415612463576040517f08c379a000000000000000000000000000000000000000000000000000000000815260040161245a906147b0565b60405180910390fd5b61246c81611e2b565b156124ac576040517f08c379a00000000000000000000000000000000000000000000000000000000081526004016124a390614650565b60405180910390fd5b6124b860008383612880565b6001600460008473ffffffffffffffffffffffffffffffffffffffff1673ffffffffffffffffffffffffffffffffffffffff16815260200190815260200160002060008282546125089190614b35565b92505081905550816003600083815260200190815260200160002060006101000a81548173ffffffffffffffffffffffffffffffffffffffff021916908373ffffffffffffffffffffffffffffffffffffffff160217905550808273ffffffffffffffffffffffffffffffffffffffff16600073ffffffffffffffffffffffffffffffffffffffff167fddf252ad1be2c89b69c2b068fc378daa952ba7f163c4a11628f55a4df523b3ef60405160405180910390a45050565b600e60008154809291906125d490614d20565b9190505550565b6000600b60009054906101000a900473ffffffffffffffffffffffffffffffffffffffff16905081600b60006101000a81548173ffffffffffffffffffffffffffffffffffffffff021916908373ffffffffffffffffffffffffffffffffffffffff1602179055508173ffffffffffffffffffffffffffffffffffffffff168173ffffffffffffffffffffffffffffffffffffffff167f8be0079c531659141344cd1fd0a4f28419497f9722a3daafe3b4186f6b6457e060405160405180910390a35050565b6000806126ad83612994565b905061270b818480608001906126c3919061499b565b8080601f016020809104026020016040519081016040528093929190818152602001838380828437600081840152601f19601f82011690508083019250505050505050612a04565b915050919050565b61271e848484612036565b61272a84848484612a2b565b612769576040517f08c379a0000000000000000000000000000000000000000000000000000000008152600401612760906145f0565b60405180910390fd5b50505050565b606061277a82611e2b565b6127b9576040517f08c379a00000000000000000000000000000000000000000000000000000000081526004016127b090614850565b60405180910390fd5b60006127c3612bc2565b905060008151116127e3576040518060200160405280600081525061280e565b806127ed84612292565b6040516020016127fe9291906142e8565b6040516020818303038152906040525b915050919050565b60007f01ffc9a7000000000000000000000000000000000000000000000000000000007bffffffffffffffffffffffffffffffffffffffffffffffffffffffff1916827bffffffffffffffffffffffffffffffffffffffffffffffffffffffff1916149050919050565b61288b838383612bd9565b600073ffffffffffffffffffffffffffffffffffffffff168373ffffffffffffffffffffffffffffffffffffffff1614156128ce576128c981612bde565b61290d565b8173ffffffffffffffffffffffffffffffffffffffff168373ffffffffffffffffffffffffffffffffffffffff161461290c5761290b8382612c27565b5b5b600073ffffffffffffffffffffffffffffffffffffffff168273ffffffffffffffffffffffffffffffffffffffff1614156129505761294b81612d94565b61298f565b8273ffffffffffffffffffffffffffffffffffffffff168273ffffffffffffffffffffffffffffffffffffffff161461298e5761298d8282612e65565b5b5b505050565b60006129fd7f9351747b1e9d1d5ecc2259decffb60239f521e243e85645e0762ed1d7758767783600001358460200135856040013586606001356040516020016129e29594939291906144d6565b60405160208183030381529060405280519060200120612ee4565b9050919050565b6000806000612a138585612efe565b91509150612a2081612f81565b819250505092915050565b6000612a4c8473ffffffffffffffffffffffffffffffffffffffff16613156565b15612bb5578373ffffffffffffffffffffffffffffffffffffffff1663150b7a02612a75611e97565b8786866040518563ffffffff1660e01b8152600401612a97949392919061441c565b602060405180830381600087803b158015612ab157600080fd5b505af1925050508015612ae257506040513d601f19601f82011682018060405250810190612adf9190613b99565b60015b612b65573d8060008114612b12576040519150601f19603f3d011682016040523d82523d6000602084013e612b17565b606091505b50600081511415612b5d576040517f08c379a0000000000000000000000000000000000000000000000000000000008152600401612b54906145f0565b60405180910390fd5b805181602001fd5b63150b7a0260e01b7bffffffffffffffffffffffffffffffffffffffffffffffffffffffff1916817bffffffffffffffffffffffffffffffffffffffffffffffffffffffff191614915050612bba565b600190505b949350505050565b606060405180602001604052806000815250905090565b505050565b600980549050600a600083815260200190815260200160002081905550600981908060018154018082558091505060019003906000526020600020016000909190919091505550565b60006001612c34846110d8565b612c3e9190614bbc565b9050600060086000848152602001908152602001600020549050818114612d23576000600760008673ffffffffffffffffffffffffffffffffffffffff1673ffffffffffffffffffffffffffffffffffffffff168152602001908152602001600020600084815260200190815260200160002054905080600760008773ffffffffffffffffffffffffffffffffffffffff1673ffffffffffffffffffffffffffffffffffffffff168152602001908152602001600020600084815260200190815260200160002081905550816008600083815260200190815260200160002081905550505b6008600084815260200190815260200160002060009055600760008573ffffffffffffffffffffffffffffffffffffffff1673ffffffffffffffffffffffffffffffffffffffff16815260200190815260200160002060008381526020019081526020016000206000905550505050565b60006001600980549050612da89190614bbc565b90506000600a6000848152602001908152602001600020549050600060098381548110612dd857612dd7614e8f565b5b906000526020600020015490508060098381548110612dfa57612df9614e8f565b5b906000526020600020018190555081600a600083815260200190815260200160002081905550600a6000858152602001908152602001600020600090556009805480612e4957612e48614e60565b5b6001900381819060005260206000200160009055905550505050565b6000612e70836110d8565b905081600760008573ffffffffffffffffffffffffffffffffffffffff1673ffffffffffffffffffffffffffffffffffffffff168152602001908152602001600020600083815260200190815260200160002081905550806008600084815260200190815260200160002081905550505050565b6000612ef7612ef1613169565b8361322c565b9050919050565b600080604183511415612f405760008060006020860151925060408601519150606086015160001a9050612f348782858561325f565b94509450505050612f7a565b604083511415612f71576000806020850151915060408501519050612f6686838361336c565b935093505050612f7a565b60006002915091505b9250929050565b60006004811115612f9557612f94614e02565b5b816004811115612fa857612fa7614e02565b5b1415612fb357613153565b60016004811115612fc757612fc6614e02565b5b816004811115612fda57612fd9614e02565b5b141561301b576040517f08c379a000000000000000000000000000000000000000000000000000000000815260040161301290614590565b60405180910390fd5b6002600481111561302f5761302e614e02565b5b81600481111561304257613041614e02565b5b1415613083576040517f08c379a000000000000000000000000000000000000000000000000000000000815260040161307a906145b0565b60405180910390fd5b6003600481111561309757613096614e02565b5b8160048111156130aa576130a9614e02565b5b14156130eb576040517f08c379a00000000000000000000000000000000000000000000000000000000081526004016130e2906146b0565b60405180910390fd5b6004808111156130fe576130fd614e02565b5b81600481111561311157613110614e02565b5b1415613152576040517f08c379a000000000000000000000000000000000000000000000000000000000815260040161314990614790565b60405180910390fd5b5b50565b600080823b905060008111915050919050565b60007f00000000000000000000000000000000000000000000000000000000000000004614156131bb577f00000000000000000000000000000000000000000000000000000000000000009050613229565b6132267f00000000000000000000000000000000000000000000000000000000000000007f00000000000000000000000000000000000000000000000000000000000000007f00000000000000000000000000000000000000000000000000000000000000006133ba565b90505b90565b6000828260405160200161324192919061436a565b60405160208183030381529060405280519060200120905092915050565b6000807f7fffffffffffffffffffffffffffffff5d576e7357a4501ddfe92f46681b20a08360001c111561329a576000600391509150613363565b601b8560ff16141580156132b25750601c8560ff1614155b156132c4576000600491509150613363565b6000600187878787604051600081526020016040526040516132e99493929190614529565b6020604051602081039080840390855afa15801561330b573d6000803e3d6000fd5b505050602060405103519050600073ffffffffffffffffffffffffffffffffffffffff168173ffffffffffffffffffffffffffffffffffffffff16141561335a57600060019250925050613363565b80600092509250505b94509492505050565b6000806000807f7fffffffffffffffffffffffffffffffffffffffffffffffffffffffffffffff85169150601b8560ff1c0190506133ac8782888561325f565b935093505050935093915050565b600083838346306040516020016133d5959493929190614483565b6040516020818303038152906040528051906020012090509392505050565b82805461340090614cbd565b90600052602060002090601f0160209004810192826134225760008555613469565b82601f1061343b57805160ff1916838001178555613469565b82800160010185558215613469579182015b8281111561346857825182559160200191906001019061344d565b5b509050613476919061347a565b5090565b5b8082111561349357600081600090555060010161347b565b5090565b60006134aa6134a584614a23565b6149fe565b905080838252602082019050828560208602820111156134cd576134cc614f01565b5b60005b8581101561351b57813567ffffffffffffffff8111156134f3576134f2614eed565b5b808601613500898261370c565b855260208501945060208401935050506001810190506134d0565b5050509392505050565b600061353861353384614a4f565b6149fe565b9050808382526020820190508285602086028201111561355b5761355a614f01565b5b60005b8581101561358b57816135718882613759565b84526020840193506020830192505060018101905061355e565b5050509392505050565b60006135a86135a384614a7b565b6149fe565b9050828152602081018484840111156135c4576135c3614f0b565b5b6135cf848285614c7b565b509392505050565b60006135ea6135e584614aac565b6149fe565b90508281526020810184848401111561360657613605614f0b565b5b613611848285614c7b565b509392505050565b6000813590506136288161576c565b92915050565b60008151905061363d8161576c565b92915050565b600082601f83011261365857613657614eed565b5b8135613668848260208601613497565b91505092915050565b600082601f83011261368657613685614eed565b5b8135613696848260208601613525565b91505092915050565b6000813590506136ae81615783565b92915050565b6000813590506136c38161579a565b92915050565b6000815190506136d88161579a565b92915050565b600082601f8301126136f3576136f2614eed565b5b8135613703848260208601613595565b91505092915050565b600082601f83011261372157613720614eed565b5b81356137318482602086016135d7565b91505092915050565b600060a082840312156137505761374f614ef7565b5b81905092915050565b600081359050613768816157b1565b92915050565b60006020828403121561378457613783614f15565b5b600061379284828501613619565b91505092915050565b6000602082840312156137b1576137b0614f15565b5b60006137bf8482850161362e565b91505092915050565b600080604083850312156137df576137de614f15565b5b60006137ed85828601613619565b92505060206137fe85828601613619565b9150509250929050565b60008060006060848603121561382157613820614f15565b5b600061382f86828701613619565b935050602061384086828701613619565b925050604084013567ffffffffffffffff81111561386157613860614f10565b5b61386d8682870161373a565b9150509250925092565b6000806000606084860312156138905761388f614f15565b5b600061389e86828701613619565b93505060206138af86828701613619565b92505060406138c086828701613759565b9150509250925092565b600080600080608085870312156138e4576138e3614f15565b5b60006138f287828801613619565b945050602061390387828801613619565b935050604061391487828801613759565b925050606085013567ffffffffffffffff81111561393557613934614f10565b5b613941878288016136de565b91505092959194509250565b6000806040838503121561396457613963614f15565b5b600061397285828601613619565b92505060206139838582860161369f565b9150509250929050565b600080604083850312156139a4576139a3614f15565b5b60006139b285828601613619565b925050602083013567ffffffffffffffff8111156139d3576139d2614f10565b5b6139df8582860161370c565b9150509250929050565b60008060408385031215613a00576139ff614f15565b5b6000613a0e85828601613619565b925050602083013567ffffffffffffffff811115613a2f57613a2e614f10565b5b613a3b8582860161373a565b9150509250929050565b60008060408385031215613a5c57613a5b614f15565b5b6000613a6a85828601613619565b9250506020613a7b85828601613759565b9150509250929050565b600080600060608486031215613a9e57613a9d614f15565b5b6000613aac86828701613619565b9350506020613abd86828701613759565b925050604084013567ffffffffffffffff811115613ade57613add614f10565b5b613aea8682870161370c565b9150509250925092565b60008060408385031215613b0b57613b0a614f15565b5b600083013567ffffffffffffffff811115613b2957613b28614f10565b5b613b3585828601613671565b925050602083013567ffffffffffffffff811115613b5657613b55614f10565b5b613b6285828601613643565b9150509250929050565b600060208284031215613b8257613b81614f15565b5b6000613b90848285016136b4565b91505092915050565b600060208284031215613baf57613bae614f15565b5b6000613bbd848285016136c9565b91505092915050565b600060208284031215613bdc57613bdb614f15565b5b600082013567ffffffffffffffff811115613bfa57613bf9614f10565b5b613c068482850161370c565b91505092915050565b600060208284031215613c2557613c24614f15565b5b600082013567ffffffffffffffff811115613c4357613c42614f10565b5b613c4f8482850161373a565b91505092915050565b600060208284031215613c6e57613c6d614f15565b5b6000613c7c84828501613759565b91505092915050565b60008060408385031215613c9c57613c9b614f15565b5b6000613caa85828601613759565b925050602083013567ffffffffffffffff811115613ccb57613cca614f10565b5b613cd78582860161370c565b9150509250929050565b613cea81614bf0565b82525050565b613cf981614c02565b82525050565b613d0881614c0e565b82525050565b613d1f613d1a82614c0e565b614d69565b82525050565b6000613d3082614af2565b613d3a8185614b08565b9350613d4a818560208601614c8a565b613d5381614f1a565b840191505092915050565b6000613d6982614afd565b613d738185614b19565b9350613d83818560208601614c8a565b613d8c81614f1a565b840191505092915050565b6000613da282614afd565b613dac8185614b2a565b9350613dbc818560208601614c8a565b80840191505092915050565b60008154613dd581614cbd565b613ddf8186614b2a565b94506001821660008114613dfa5760018114613e0b57613e3e565b60ff19831686528186019350613e3e565b613e1485614add565b60005b83811015613e3657815481890152600182019150602081019050613e17565b838801955050505b50505092915050565b6000613e54601883614b19565b9150613e5f82614f2b565b602082019050919050565b6000613e77601f83614b19565b9150613e8282614f54565b602082019050919050565b6000613e9a602b83614b19565b9150613ea582614f7d565b604082019050919050565b6000613ebd603283614b19565b9150613ec882614fcc565b604082019050919050565b6000613ee0601b83614b19565b9150613eeb8261501b565b602082019050919050565b6000613f03602683614b19565b9150613f0e82615044565b604082019050919050565b6000613f26601c83614b19565b9150613f3182615093565b602082019050919050565b6000613f49600283614b2a565b9150613f54826150bc565b600282019050919050565b6000613f6c602483614b19565b9150613f77826150e5565b604082019050919050565b6000613f8f601983614b19565b9150613f9a82615134565b602082019050919050565b6000613fb2602283614b19565b9150613fbd8261515d565b604082019050919050565b6000613fd5602c83614b19565b9150613fe0826151ac565b604082019050919050565b6000613ff8601383614b19565b9150614003826151fb565b602082019050919050565b600061401b603883614b19565b915061402682615224565b604082019050919050565b600061403e602a83614b19565b915061404982615273565b604082019050919050565b6000614061602983614b19565b915061406c826152c2565b604082019050919050565b6000614084602a83614b19565b915061408f82615311565b604082019050919050565b60006140a7602283614b19565b91506140b282615360565b604082019050919050565b60006140ca602083614b19565b91506140d5826153af565b602082019050919050565b60006140ed601f83614b19565b91506140f8826153d8565b602082019050919050565b6000614110602c83614b19565b915061411b82615401565b604082019050919050565b6000614133600583614b2a565b915061413e82615450565b600582019050919050565b6000614156602083614b19565b915061416182615479565b602082019050919050565b6000614179602983614b19565b9150614184826154a2565b604082019050919050565b600061419c602f83614b19565b91506141a7826154f1565b604082019050919050565b60006141bf602c83614b19565b91506141ca82615540565b604082019050919050565b60006141e2601c83614b19565b91506141ed8261558f565b602082019050919050565b6000614205602183614b19565b9150614210826155b8565b604082019050919050565b6000614228602783614b19565b915061423382615607565b604082019050919050565b600061424b603183614b19565b915061425682615656565b604082019050919050565b600061426e602c83614b19565b9150614279826156a5565b604082019050919050565b6000614291602783614b19565b915061429c826156f4565b604082019050919050565b60006142b4600183614b2a565b91506142bf82615743565b600182019050919050565b6142d381614c64565b82525050565b6142e281614c6e565b82525050565b60006142f48285613d97565b91506143008284613d97565b91508190509392505050565b60006143188285613d97565b9150614323826142a7565b915061432f8284613d97565b915061433a82614126565b91508190509392505050565b60006143528285613dc8565b915061435e8284613d97565b91508190509392505050565b600061437582613f3c565b91506143818285613d0e565b6020820191506143918284613d0e565b6020820191508190509392505050565b60006020820190506143b66000830184613ce1565b92915050565b60006040820190506143d16000830185613ce1565b6143de6020830184613ce1565b9392505050565b60006060820190506143fa6000830186613ce1565b6144076020830185613ce1565b61441460408301846142ca565b949350505050565b60006080820190506144316000830187613ce1565b61443e6020830186613ce1565b61444b60408301856142ca565b818103606083015261445d8184613d25565b905095945050505050565b600060208201905061447d6000830184613cf0565b92915050565b600060a0820190506144986000830188613cff565b6144a56020830187613cff565b6144b26040830186613cff565b6144bf60608301856142ca565b6144cc6080830184613ce1565b9695505050505050565b600060a0820190506144eb6000830188613cff565b6144f860208301876142ca565b61450560408301866142ca565b61451260608301856142ca565b61451f60808301846142ca565b9695505050505050565b600060808201905061453e6000830187613cff565b61454b60208301866142d9565b6145586040830185613cff565b6145656060830184613cff565b95945050505050565b600060208201905081810360008301526145888184613d5e565b905092915050565b600060208201905081810360008301526145a981613e47565b9050919050565b600060208201905081810360008301526145c981613e6a565b9050919050565b600060208201905081810360008301526145e981613e8d565b9050919050565b6000602082019050818103600083015261460981613eb0565b9050919050565b6000602082019050818103600083015261462981613ed3565b9050919050565b6000602082019050818103600083015261464981613ef6565b9050919050565b6000602082019050818103600083015261466981613f19565b9050919050565b6000602082019050818103600083015261468981613f5f565b9050919050565b600060208201905081810360008301526146a981613f82565b9050919050565b600060208201905081810360008301526146c981613fa5565b9050919050565b600060208201905081810360008301526146e981613fc8565b9050919050565b6000602082019050818103600083015261470981613feb565b9050919050565b600060208201905081810360008301526147298161400e565b9050919050565b6000602082019050818103600083015261474981614031565b9050919050565b6000602082019050818103600083015261476981614054565b9050919050565b6000602082019050818103600083015261478981614077565b9050919050565b600060208201905081810360008301526147a98161409a565b9050919050565b600060208201905081810360008301526147c9816140bd565b9050919050565b600060208201905081810360008301526147e9816140e0565b9050919050565b6000602082019050818103600083015261480981614103565b9050919050565b6000602082019050818103600083015261482981614149565b9050919050565b600060208201905081810360008301526148498161416c565b9050919050565b600060208201905081810360008301526148698161418f565b9050919050565b60006020820190508181036000830152614889816141b2565b9050919050565b600060208201905081810360008301526148a9816141d5565b9050919050565b600060208201905081810360008301526148c9816141f8565b9050919050565b600060208201905081810360008301526148e98161421b565b9050919050565b600060208201905081810360008301526149098161423e565b9050919050565b6000602082019050818103600083015261492981614261565b9050919050565b6000602082019050818103600083015261494981614284565b9050919050565b600060208201905061496560008301846142ca565b92915050565b600060408201905061498060008301856142ca565b81810360208301526149928184613d5e565b90509392505050565b600080833560016020038436030381126149b8576149b7614efc565b5b80840192508235915067ffffffffffffffff8211156149da576149d9614ef2565b5b6020830192506001820236038313156149f6576149f5614f06565b5b509250929050565b6000614a08614a19565b9050614a148282614cef565b919050565b6000604051905090565b600067ffffffffffffffff821115614a3e57614a3d614ebe565b5b602082029050602081019050919050565b600067ffffffffffffffff821115614a6a57614a69614ebe565b5b602082029050602081019050919050565b600067ffffffffffffffff821115614a9657614a95614ebe565b5b614a9f82614f1a565b9050602081019050919050565b600067ffffffffffffffff821115614ac757614ac6614ebe565b5b614ad082614f1a565b9050602081019050919050565b60008190508160005260206000209050919050565b600081519050919050565b600081519050919050565b600082825260208201905092915050565b600082825260208201905092915050565b600081905092915050565b6000614b4082614c64565b9150614b4b83614c64565b9250827fffffffffffffffffffffffffffffffffffffffffffffffffffffffffffffffff03821115614b8057614b7f614da4565b5b828201905092915050565b6000614b9682614c64565b9150614ba183614c64565b925082614bb157614bb0614dd3565b5b828204905092915050565b6000614bc782614c64565b9150614bd283614c64565b925082821015614be557614be4614da4565b5b828203905092915050565b6000614bfb82614c44565b9050919050565b60008115159050919050565b6000819050919050565b60007fffffffff0000000000000000000000000000000000000000000000000000000082169050919050565b600073ffffffffffffffffffffffffffffffffffffffff82169050919050565b6000819050919050565b600060ff82169050919050565b82818337600083830152505050565b60005b83811015614ca8578082015181840152602081019050614c8d565b83811115614cb7576000848401525b50505050565b60006002820490506001821680614cd557607f821691505b60208210811415614ce957614ce8614e31565b5b50919050565b614cf882614f1a565b810181811067ffffffffffffffff82111715614d1757614d16614ebe565b5b80604052505050565b6000614d2b82614c64565b91507fffffffffffffffffffffffffffffffffffffffffffffffffffffffffffffffff821415614d5e57614d5d614da4565b5b600182019050919050565b6000819050919050565b6000614d7e82614c64565b9150614d8983614c64565b925082614d9957614d98614dd3565b5b828206905092915050565b7f4e487b7100000000000000000000000000000000000000000000000000000000600052601160045260246000fd5b7f4e487b7100000000000000000000000000000000000000000000000000000000600052601260045260246000fd5b7f4e487b7100000000000000000000000000000000000000000000000000000000600052602160045260246000fd5b7f4e487b7100000000000000000000000000000000000000000000000000000000600052602260045260246000fd5b7f4e487b7100000000000000000000000000000000000000000000000000000000600052603160045260246000fd5b7f4e487b7100000000000000000000000000000000000000000000000000000000600052603260045260246000fd5b7f4e487b7100000000000000000000000000000000000000000000000000000000600052604160045260246000fd5b600080fd5b600080fd5b600080fd5b600080fd5b600080fd5b600080fd5b600080fd5b600080fd5b600080fd5b6000601f19601f8301169050919050565b7f45434453413a20696e76616c6964207369676e61747572650000000000000000600082015250565b7f45434453413a20696e76616c6964207369676e6174757265206c656e67746800600082015250565b7f455243373231456e756d657261626c653a206f776e657220696e646578206f7560008201527f74206f6620626f756e6473000000000000000000000000000000000000000000602082015250565b7f4552433732313a207472616e7366657220746f206e6f6e20455243373231526560008201527f63656976657220696d706c656d656e7465720000000000000000000000000000602082015250565b7f566f75636865722068617320616c726561647920657870697265640000000000600082015250565b7f4f776e61626c653a206e6577206f776e657220697320746865207a65726f206160008201527f6464726573730000000000000000000000000000000000000000000000000000602082015250565b7f4552433732313a20746f6b656e20616c7265616479206d696e74656400000000600082015250565b7f1901000000000000000000000000000000000000000000000000000000000000600082015250565b7f4552433732313a207472616e7366657220746f20746865207a65726f2061646460008201527f7265737300000000000000000000000000000000000000000000000000000000602082015250565b7f4552433732313a20617070726f766520746f2063616c6c657200000000000000600082015250565b7f45434453413a20696e76616c6964207369676e6174757265202773272076616c60008201527f7565000000000000000000000000000000000000000000000000000000000000602082015250565b7f4552433732313a206f70657261746f7220717565727920666f72206e6f6e657860008201527f697374656e7420746f6b656e0000000000000000000000000000000000000000602082015250565b7f496e76616c6964206e6f6e63652076616c756500000000000000000000000000600082015250565b7f4552433732313a20617070726f76652063616c6c6572206973206e6f74206f7760008201527f6e6572206e6f7220617070726f76656420666f7220616c6c0000000000000000602082015250565b7f4552433732313a2062616c616e636520717565727920666f7220746865207a6560008201527f726f206164647265737300000000000000000000000000000000000000000000602082015250565b7f4552433732313a206f776e657220717565727920666f72206e6f6e657869737460008201527f656e7420746f6b656e0000000000000000000000000000000000000000000000602082015250565b7f4552433732313a2053657474696e672055524920666f72206e6f6e2d6578697360008201527f74656e7420746f6b656e00000000000000000000000000000000000000000000602082015250565b7f45434453413a20696e76616c6964207369676e6174757265202776272076616c60008201527f7565000000000000000000000000000000000000000000000000000000000000602082015250565b7f4552433732313a206d696e7420746f20746865207a65726f2061646472657373600082015250565b7f4552433732313a2043616c6c6572206973206e6f7420746865206f776e657200600082015250565b7f4552433732313a20617070726f76656420717565727920666f72206e6f6e657860008201527f697374656e7420746f6b656e0000000000000000000000000000000000000000602082015250565b7f2e6a736f6e000000000000000000000000000000000000000000000000000000600082015250565b7f4f776e61626c653a2063616c6c6572206973206e6f7420746865206f776e6572600082015250565b7f4552433732313a207472616e73666572206f6620746f6b656e2074686174206960008201527f73206e6f74206f776e0000000000000000000000000000000000000000000000602082015250565b7f4552433732314d657461646174613a2055524920717565727920666f72206e6f60008201527f6e6578697374656e7420746f6b656e0000000000000000000000000000000000602082015250565b7f5468697320636f6e747261637420686173206e6f20617070726f76616c20666f60008201527f72207468697320746f6b656e0000000000000000000000000000000000000000602082015250565b7f4552433732313a20496e76616c6964205552492070726f766964656400000000600082015250565b7f4552433732313a20617070726f76616c20746f2063757272656e74206f776e6560008201527f7200000000000000000000000000000000000000000000000000000000000000602082015250565b7f417574686f72697a6174696f6e206661696c65643a20496e76616c696420736960008201527f676e617475726500000000000000000000000000000000000000000000000000602082015250565b7f4552433732313a207472616e736665722063616c6c6572206973206e6f74206f60008201527f776e6572206e6f7220617070726f766564000000000000000000000000000000602082015250565b7f455243373231456e756d657261626c653a20676c6f62616c20696e646578206f60008201527f7574206f6620626f756e64730000000000000000000000000000000000000000602082015250565b7f4552433732313a2055524920717565727920666f72206e6f6e6578697374656e60008201527f7420746f6b656e00000000000000000000000000000000000000000000000000602082015250565b7f2f00000000000000000000000000000000000000000000000000000000000000600082015250565b61577581614bf0565b811461578057600080fd5b50565b61578c81614c02565b811461579757600080fd5b50565b6157a381614c18565b81146157ae57600080fd5b50565b6157ba81614c64565b81146157c557600080fd5b5056fea26469706673582212205631489b848bcb8394ccd83042353855aa5ee3899e6bc8f1113fbd6343d5fb8c64736f6c6343000807003368747470733a2f2f676174657761792e70696e6174612e636c6f75642f697066732f",
  "linkReferences": {},
  "deployedLinkReferences": {}
}